:100000007FCE0000000000000000000000000000A3
:101D0000A895222424BEA89581B5886181BD21BCF7
:101D100002E00EBF0FE50DBFF894B99A85E0C19AB5
:101D200087D086D085D084D083D0C19881D080D010
:101D30007FD07ED07DD07CD0C19A7AD0C19878D027
:101D4000C19A76D0C19874D08A9549F7C19A82E039
:101D500020BE29BE26BE83BF22BE662701D0FECF8D
:101D60002227E89482B78E33E8F322BE86B382FD41
:101D70002395F826F2FE05C0303510F0375F01C01C
:101D80003B503C5EF82E303A68F3440F551F253027
:101D900008F04160305A22270EF069C00A9511F709
:101DA0005F70842F8F736CD0982F440F551F440F92
:101DB000551F852F65D08295982B892F74D01F3F92
:101DC00011F4F92F18C01E3F11F4E92F14C01D3F64
:101DD00049F4691729F0662309F013C0692F00C080
:101DE00012E409C010FD05C0192E91E097BFE895D7
:101DF00001C0092E31961A9511F00CE0B3CF77236C
:101E000009F1EE27FF271124F894C19A11D083E03D
:101E100087BFE89525D0C19823D080E4E80FF11D55
:101E2000FD3198F388E19FE081BD91BDA89500C088
:101E300023E038E048E74A95F1F73A95E1F72A952B
:101E4000D1F70895E894FF97319783E087BFE8952D
:101E500007D085E087BFE89503D06A9529F00895FB
:101E600087B780FDFDCF0895E0E0F0E009944535A7
:101E700031F4563421F4689477270CE01FEF72CFC9
:101E80007F939F93EF93FF93E8ECFEE17727959183
:101E9000981719F07395D8F370E1872FFF91EF91A0
:101EA0009F917F9108952F933F939F93782798E078
:101EB0002CE8372F3170769530FD72279150C9F795
:101EC0009F913F912F9108950D0E131516191A1C0D
:0A1ED000232526292A2C3234FF00B6
:00000001FF
